{
  "_format": "hh-sol-artifact-1",
  "contractName": "RafflesContract",
  "sourceName": "contracts/WearableRaffle2.sol",
  "abi": [
    {
      "anonymous": false,
      "inputs": [
        {
          "indexed": true,
          "internalType": "address",
          "name": "previousOwner",
          "type": "address"
        },
        {
          "indexed": true,
          "internalType": "address",
          "name": "newOwner",
          "type": "address"
        }
      ],
      "name": "OwnershipTransferred",
      "type": "event"
    },
    {
      "inputs": [
        {
          "internalType": "uint256",
          "name": "_newFee",
          "type": "uint256"
        },
        {
          "internalType": "bytes32",
          "name": "_keyHash",
          "type": "bytes32"
        }
      ],
      "name": "changeVRFFee",
      "outputs": [],
      "stateMutability": "nonpayable",
      "type": "function"
    },
    {
      "inputs": [
        {
          "internalType": "address",
          "name": "_entrant",
          "type": "address"
        }
      ],
      "name": "claimAllPrizes",
      "outputs": [],
      "stateMutability": "nonpayable",
      "type": "function"
    },
    {
      "inputs": [
        {
          "internalType": "uint256",
          "name": "_raffleId",
          "type": "uint256"
        },
        {
          "internalType": "address",
          "name": "_entrant",
          "type": "address"
        }
      ],
      "name": "claimPrize",
      "outputs": [],
      "stateMutability": "nonpayable",
      "type": "function"
    },
    {
      "inputs": [],
      "name": "doNothing",
      "outputs": [],
      "stateMutability": "nonpayable",
      "type": "function"
    },
    {
      "inputs": [
        {
          "internalType": "uint256",
          "name": "_raffleId",
          "type": "uint256"
        }
      ],
      "name": "drawRandomNumber",
      "outputs": [],
      "stateMutability": "nonpayable",
      "type": "function"
    },
    {
      "inputs": [
        {
          "internalType": "address",
          "name": "_tokenAddress",
          "type": "address"
        },
        {
          "internalType": "uint256",
          "name": "_id",
          "type": "uint256"
        }
      ],
      "name": "enterWearable",
      "outputs": [],
      "stateMutability": "nonpayable",
      "type": "function"
    },
    {
      "inputs": [],
      "name": "getCoordinator",
      "outputs": [
        {
          "internalType": "address",
          "name": "",
          "type": "address"
        }
      ],
      "stateMutability": "view",
      "type": "function"
    },
    {
      "inputs": [
        {
          "internalType": "uint256",
          "name": "_raffleId",
          "type": "uint256"
        }
      ],
      "name": "getEntrants",
      "outputs": [
        {
          "internalType": "address[]",
          "name": "_entrants",
          "type": "address[]"
        }
      ],
      "stateMutability": "view",
      "type": "function"
    },
    {
      "inputs": [],
      "name": "getFeeAmt",
      "outputs": [
        {
          "internalType": "uint96",
          "name": "",
          "type": "uint96"
        }
      ],
      "stateMutability": "view",
      "type": "function"
    },
    {
      "inputs": [
        {
          "internalType": "uint256",
          "name": "_raffleId",
          "type": "uint256"
        }
      ],
      "name": "getWinner",
      "outputs": [
        {
          "internalType": "address",
          "name": "_winner",
          "type": "address"
        }
      ],
      "stateMutability": "view",
      "type": "function"
    },
    {
      "inputs": [
        {
          "internalType": "address",
          "name": "_aavegotchiDiamond",
          "type": "address"
        },
        {
          "internalType": "address",
          "name": "_contractOwner",
          "type": "address"
        },
        {
          "internalType": "address",
          "name": "_vrfCoordinator",
          "type": "address"
        },
        {
          "internalType": "address",
          "name": "_link",
          "type": "address"
        },
        {
          "internalType": "bytes32",
          "name": "_keyHash",
          "type": "bytes32"
        },
        {
          "internalType": "uint256",
          "name": "_fee",
          "type": "uint256"
        }
      ],
      "name": "initialize",
      "outputs": [],
      "stateMutability": "nonpayable",
      "type": "function"
    },
    {
      "inputs": [
        {
          "internalType": "address",
          "name": "_account",
          "type": "address"
        }
      ],
      "name": "isApproved",
      "outputs": [
        {
          "internalType": "bool",
          "name": "",
          "type": "bool"
        }
      ],
      "stateMutability": "view",
      "type": "function"
    },
    {
      "inputs": [
        {
          "internalType": "address",
          "name": "_address",
          "type": "address"
        }
      ],
      "name": "isWinner",
      "outputs": [
        {
          "internalType": "bool",
          "name": "",
          "type": "bool"
        }
      ],
      "stateMutability": "view",
      "type": "function"
    },
    {
      "inputs": [
        {
          "internalType": "address",
          "name": "_account",
          "type": "address"
        }
      ],
      "name": "itemBalances",
      "outputs": [
        {
          "components": [
            {
              "internalType": "uint256",
              "name": "itemId",
              "type": "uint256"
            },
            {
              "internalType": "uint256",
              "name": "balance",
              "type": "uint256"
            }
          ],
          "internalType": "struct ItemIdIO[]",
          "name": "bals_",
          "type": "tuple[]"
        }
      ],
      "stateMutability": "view",
      "type": "function"
    },
    {
      "inputs": [],
      "name": "linkBalance",
      "outputs": [
        {
          "internalType": "uint256",
          "name": "linkBalance_",
          "type": "uint256"
        }
      ],
      "stateMutability": "view",
      "type": "function"
    },
    {
      "inputs": [
        {
          "internalType": "bytes32",
          "name": "_keyHash",
          "type": "bytes32"
        }
      ],
      "name": "nonces",
      "outputs": [
        {
          "internalType": "uint256",
          "name": "nonce_",
          "type": "uint256"
        }
      ],
      "stateMutability": "view",
      "type": "function"
    },
    {
      "inputs": [
        {
          "internalType": "address",
          "name": "_operator",
          "type": "address"
        },
        {
          "internalType": "address",
          "name": "_from",
          "type": "address"
        },
        {
          "internalType": "uint256",
          "name": "_id",
          "type": "uint256"
        },
        {
          "internalType": "uint256",
          "name": "_value",
          "type": "uint256"
        },
        {
          "internalType": "bytes",
          "name": "_data",
          "type": "bytes"
        }
      ],
      "name": "onERC1155Received",
      "outputs": [
        {
          "internalType": "bytes4",
          "name": "",
          "type": "bytes4"
        }
      ],
      "stateMutability": "view",
      "type": "function"
    },
    {
      "inputs": [],
      "name": "owner",
      "outputs": [
        {
          "internalType": "address",
          "name": "",
          "type": "address"
        }
      ],
      "stateMutability": "view",
      "type": "function"
    },
    {
      "inputs": [
        {
          "internalType": "bytes32",
          "name": "_requestId",
          "type": "bytes32"
        },
        {
          "internalType": "uint256",
          "name": "_randomness",
          "type": "uint256"
        }
      ],
      "name": "rawFulfillRandomness",
      "outputs": [],
      "stateMutability": "nonpayable",
      "type": "function"
    },
    {
      "inputs": [
        {
          "internalType": "address",
          "name": "_to",
          "type": "address"
        },
        {
          "internalType": "uint256",
          "name": "_value",
          "type": "uint256"
        }
      ],
      "name": "removeLinkTokens",
      "outputs": [],
      "stateMutability": "nonpayable",
      "type": "function"
    },
    {
      "inputs": [
        {
          "internalType": "address",
          "name": "_addy",
          "type": "address"
        }
      ],
      "name": "resetEntry",
      "outputs": [],
      "stateMutability": "nonpayable",
      "type": "function"
    },
    {
      "inputs": [
        {
          "internalType": "uint256",
          "name": "_raffleId",
          "type": "uint256"
        }
      ],
      "name": "resetRaffle",
      "outputs": [],
      "stateMutability": "nonpayable",
      "type": "function"
    },
    {
      "inputs": [
        {
          "internalType": "address",
          "name": "_tokenAddress",
          "type": "address"
        },
        {
          "internalType": "uint256",
          "name": "_id",
          "type": "uint256"
        },
        {
          "internalType": "uint256",
          "name": "_value",
          "type": "uint256"
        }
      ],
      "name": "returnERC1155",
      "outputs": [],
      "stateMutability": "nonpayable",
      "type": "function"
    },
    {
      "inputs": [
        {
          "internalType": "uint96",
          "name": "_newFee",
          "type": "uint96"
        }
      ],
      "name": "setFeeAmt",
      "outputs": [],
      "stateMutability": "nonpayable",
      "type": "function"
    },
    {
      "inputs": [
        {
          "internalType": "bytes4",
          "name": "_interfaceId",
          "type": "bytes4"
        }
      ],
      "name": "supportsInterface",
      "outputs": [
        {
          "internalType": "bool",
          "name": "",
          "type": "bool"
        }
      ],
      "stateMutability": "view",
      "type": "function"
    },
    {
      "inputs": [
        {
          "internalType": "address",
          "name": "_newContractOwner",
          "type": "address"
        }
      ],
      "name": "transferOwnership",
      "outputs": [],
      "stateMutability": "nonpayable",
      "type": "function"
    },
    {
      "inputs": [
        {
          "internalType": "address",
          "name": "_tokenAddress",
          "type": "address"
        },
        {
          "internalType": "uint256",
          "name": "_amount",
          "type": "uint256"
        }
      ],
      "name": "withDrawERC20",
      "outputs": [],
      "stateMutability": "nonpayable",
      "type": "function"
    }
  ],
  "bytecode": "0x608060405234801561001057600080fd5b506145aa806100206000396000f3fe608060405234801561001057600080fd5b50600436106101a95760003560e01c80638da5cb5b116100f9578063b2344dd511610097578063d72fecea11610071578063d72fecea146104a0578063f23a6e61146104d0578063f2fde38b14610500578063f84ac62b1461051c576101a9565b8063b2344dd51461044a578063b32008a514610466578063c26ecefa14610482576101a9565b80639d9ca28d116100d35780639d9ca28d1461039e5780639e317f12146103ce578063abc00bb4146103fe578063ad92b0ec1461042e576101a9565b80638da5cb5b1461034857806394985ddd1461036657806397e45a1814610382576101a9565b8063521e75e111610166578063673448dd11610140578063673448dd146102c257806371977fe0146102f2578063761e99f014610310578063781f653e1461032c576101a9565b8063521e75e11461026c57806353cf42bd146102885780636007fe29146102a6576101a9565b806301ffc9a7146101ae578063028e9465146101de5780632f576f20146101fa578063339a6403146102045780634129b2c9146102205780634fbe617a14610250575b600080fd5b6101c860048036038101906101c391906128ad565b610538565b6040516101d591906128f5565b60405180910390f35b6101f860048036038101906101f3919061296e565b6105a3565b005b610202610639565b005b61021e600480360381019061021991906129d1565b61063b565b005b61023a600480360381019061023591906129d1565b6108dc565b6040516102479190612a0d565b60405180910390f35b61026a60048036038101906102659190612a5e565b6109ea565b005b61028660048036038101906102819190612aeb565b610e98565b005b6102906111cb565b60405161029d9190612b52565b60405180910390f35b6102c060048036038101906102bb91906129d1565b6111f0565b005b6102dc60048036038101906102d7919061296e565b6113d0565b6040516102e991906128f5565b60405180910390f35b6102fa611476565b6040516103079190612a0d565b60405180910390f35b61032a60048036038101906103259190612b6d565b6114a0565b005b61034660048036038101906103419190612bad565b6115d8565b005b6103506116ad565b60405161035d9190612a0d565b60405180910390f35b610380600480360381019061037b9190612bed565b6116da565b005b61039c60048036038101906103979190612c59565b611872565b005b6103b860048036038101906103b3919061296e565b61193c565b6040516103c591906128f5565b60405180910390f35b6103e860048036038101906103e39190612c86565b6119ad565b6040516103f59190612cc2565b60405180910390f35b610418600480360381019061041391906129d1565b6119cd565b6040516104259190612d9b565b60405180910390f35b6104486004803603810190610443919061296e565b611a78565b005b610464600480360381019061045f9190612dbd565b611d28565b005b610480600480360381019061047b9190612b6d565b611e31565b005b61048a61228a565b6040516104979190612cc2565b60405180910390f35b6104ba60048036038101906104b5919061296e565b61232d565b6040516104c79190612efd565b60405180910390f35b6104ea60048036038101906104e59190612f84565b6123da565b6040516104f7919061302d565b60405180910390f35b61051a6004803603810190610515919061296e565b6123f0565b005b61053660048036038101906105319190612b6d565b61252a565b005b600060016000016000837bffffffffffffffffffffffffffffffffffffffffffffffffffffffff19167bffffffffffffffffffffffffffffffffffffffffffffffffffffffff1916815260200190815260200160002060009054906101000a900460ff169050919050565b6001602801600c9054906101000a900473ffffffffffffffffffffffffffffffffffffffff1673ffffffffffffffffffffffffffffffffffffffff163373ffffffffffffffffffffffffffffffffffffffff1614610636576040517f08c379a000000000000000000000000000000000000000000000000000000000815260040161062d906130a5565b60405180910390fd5b50565b565b6001602801600c9054906101000a900473ffffffffffffffffffffffffffffffffffffffff1673ffffffffffffffffffffffffffffffffffffffff163373ffffffffffffffffffffffffffffffffffffffff16146106ce576040517f08c379a00000000000000000000000000000000000000000000000000000000081526004016106c5906130a5565b60405180910390fd5b60068110610711576040517f08c379a000000000000000000000000000000000000000000000000000000000815260040161070890613111565b60405180910390fd5b600060018001826006811061072957610728613131565b5b6006020190506000816004015414610776576040517f08c379a000000000000000000000000000000000000000000000000000000000815260040161076d906131d2565b60405180910390fd5b600015158160050160009054906101000a900460ff16151514806107ea57506001602801600c9054906101000a900473ffffffffffffffffffffffffffffffffffffffff1673ffffffffffffffffffffffffffffffffffffffff163373ffffffffffffffffffffffffffffffffffffffff16145b610829576040517f08c379a00000000000000000000000000000000000000000000000000000000081526004016108209061323e565b60405180910390fd5b60018160050160006101000a81548160ff0219169083151502179055506000610884600160270154600160280160009054906101000a90046bffffffffffffffffffffffff166bffffffffffffffffffffffff166000612646565b905082600160260160008381526020019081526020016000208190555060006001800184600681106108b9576108b8613131565b5b6006020160050160016101000a81548160ff021916908315150217905550505050565b600060068210610921576040517f08c379a000000000000000000000000000000000000000000000000000000000815260040161091890613111565b60405180910390fd5b600060018001836006811061093957610938613131565b5b600602019050600081600401549050600081141561095c576000925050506109e5565b60008260020180549050828660405160200161097992919061327f565b6040516020818303038152906040528051906020012060001c61099c91906132da565b90508260020181815481106109b4576109b3613131565b5b9060005260206000200160009054906101000a900473ffffffffffffffffffffffffffffffffffffffff1693505050505b919050565b600060019054906101000a900460ff1680610a10575060008054906101000a900460ff16155b610a4f576040517f08c379a0000000000000000000000000000000000000000000000000000000008152600401610a469061337d565b60405180910390fd5b60008060019054906101000a900460ff161590508015610a9f576001600060016101000a81548160ff02191690831515021790555060016000806101000a81548160ff0219169083151502179055505b856001602801600c6101000a81548173ffffffffffffffffffffffffffffffffffffffff021916908373ffffffffffffffffffffffffffffffffffffffff16021790555084602c60006101000a81548173ffffffffffffffffffffffffffffffffffffffff021916908373ffffffffffffffffffffffffffffffffffffffff16021790555083602b60006101000a81548173ffffffffffffffffffffffffffffffffffffffff021916908373ffffffffffffffffffffffffffffffffffffffff16021790555086602d60006101000a81548173ffffffffffffffffffffffffffffffffffffffff021916908373ffffffffffffffffffffffffffffffffffffffff1602179055508260016027018190555081600160280160006101000a8154816bffffffffffffffffffffffff02191690836bffffffffffffffffffffffff16021790555086600160290160006101000a81548173ffffffffffffffffffffffffffffffffffffffff021916908373ffffffffffffffffffffffffffffffffffffffff16021790555060018060000160007f01ffc9a7000000000000000000000000000000000000000000000000000000007bffffffffffffffffffffffffffffffffffffffffffffffffffffffff19167bffffffffffffffffffffffffffffffffffffffffffffffffffffffff1916815260200190815260200160002060006101000a81548160ff02191690831515021790555060018060000160007f7f5828d0000000000000000000000000000000000000000000000000000000007bffffffffffffffffffffffffffffffffffffffffffffffffffffffff19167bffffffffffffffffffffffffffffffffffffffffffffffffffffffff1916815260200190815260200160002060006101000a81548160ff021916908315150217905550600180600101600060068110610d5957610d58613131565b5b6006020160030181905550600260018001600160068110610d7d57610d7c613131565b5b6006020160030181905550600560018001600260068110610da157610da0613131565b5b6006020160030181905550600a60018001600360068110610dc557610dc4613131565b5b6006020160030181905550601460018001600460068110610de957610de8613131565b5b6006020160030181905550603260018001600560068110610e0d57610e0c613131565b5b600602016003018190555060005b6006811015610e6d576001806001018260068110610e3c57610e3b613131565b5b6006020160050160016101000a81548160ff0219169083151502179055508080610e65906133cc565b915050610e1b565b508015610e8f5760008060016101000a81548160ff0219169083151502179055505b50505050505050565b60068210610edb576040517f08c379a0000000000000000000000000000000000000000000000000000000008152600401610ed290613111565b60405180910390fd5b6000600180018360068110610ef357610ef2613131565b5b60060201905060008160040154905060008111610f45576040517f08c379a0000000000000000000000000000000000000000000000000000000008152600401610f3c90613487565b60405180910390fd5b8273ffffffffffffffffffffffffffffffffffffffff163373ffffffffffffffffffffffffffffffffffffffff161480610fcf57506001602801600c9054906101000a900473ffffffffffffffffffffffffffffffffffffffff1673ffffffffffffffffffffffffffffffffffffffff163373ffffffffffffffffffffffffffffffffffffffff16145b61100e576040517f08c379a000000000000000000000000000000000000000000000000000000000815260040161100590613519565b60405180910390fd5b8273ffffffffffffffffffffffffffffffffffffffff1661102e856108dc565b73ffffffffffffffffffffffffffffffffffffffff1614611084576040517f08c379a000000000000000000000000000000000000000000000000000000000815260040161107b90613585565b60405180910390fd5b60005b82600201805490508110156111c45760008360010160008560020184815481106110b4576110b3613131565b5b9060005260206000200160009054906101000a900473ffffffffffffffffffffffffffffffffffffffff1673ffffffffffffffffffffffffffffffffffffffff1673ffffffffffffffffffffffffffffffffffffffff168152602001908152602001600020549050602d60009054906101000a900473ffffffffffffffffffffffffffffffffffffffff1673ffffffffffffffffffffffffffffffffffffffff1663f242432a30878460016040518563ffffffff1660e01b815260040161117e9493929190613621565b600060405180830381600087803b15801561119857600080fd5b505af11580156111ac573d6000803e3d6000fd5b505050505080806111bc906133cc565b915050611087565b5050505050565b6000600160280160009054906101000a90046bffffffffffffffffffffffff16905090565b6001602801600c9054906101000a900473ffffffffffffffffffffffffffffffffffffffff1673ffffffffffffffffffffffffffffffffffffffff163373ffffffffffffffffffffffffffffffffffffffff1614611283576040517f08c379a000000000000000000000000000000000000000000000000000000000815260040161127a906130a5565b60405180910390fd5b600060018001826006811061129b5761129a613131565b5b6006020160020180549050905060005b818110156113a25760006001826112c29190613679565b905060006001800185600681106112dc576112db613131565b5b6006020160020182856112ef91906136cf565b81548110611300576112ff613131565b5b9060005260206000200160009054906101000a900473ffffffffffffffffffffffffffffffffffffffff169050600060018001866006811061134557611344613131565b5b6006020160010160008373ffffffffffffffffffffffffffffffffffffffff1673ffffffffffffffffffffffffffffffffffffffff168152602001908152602001600020819055505050808061139a906133cc565b9150506112ab565b506001800182600681106113b9576113b8613131565b5b6006020160020160006113cc9190612803565b5050565b6000602d60009054906101000a900473ffffffffffffffffffffffffffffffffffffffff1673ffffffffffffffffffffffffffffffffffffffff1663e985e9c583306040518363ffffffff1660e01b815260040161142f929190613703565b602060405180830381865afa15801561144c573d6000803e3d6000fd5b505050506040513d601f19601f820116820180604052508101906114709190613758565b50919050565b6000602c60009054906101000a900473ffffffffffffffffffffffffffffffffffffffff16905090565b6001602801600c9054906101000a900473ffffffffffffffffffffffffffffffffffffffff1673ffffffffffffffffffffffffffffffffffffffff163373ffffffffffffffffffffffffffffffffffffffff1614611533576040517f08c379a000000000000000000000000000000000000000000000000000000000815260040161152a906137d1565b60405180910390fd5b602b60009054906101000a900473ffffffffffffffffffffffffffffffffffffffff1673ffffffffffffffffffffffffffffffffffffffff1663a9059cbb83836040518363ffffffff1660e01b81526004016115909291906137f1565b6020604051808303816000875af11580156115af573d6000803e3d6000fd5b505050506040513d601f19601f820116820180604052508101906115d39190613758565b505050565b6001602801600c9054906101000a900473ffffffffffffffffffffffffffffffffffffffff1673ffffffffffffffffffffffffffffffffffffffff163373ffffffffffffffffffffffffffffffffffffffff161461166b576040517f08c379a0000000000000000000000000000000000000000000000000000000008152600401611662906137d1565b60405180910390fd5b81600160280160006101000a8154816bffffffffffffffffffffffff02191690836bffffffffffffffffffffffff160217905550806001602701819055505050565b60006001602801600c9054906101000a900473ffffffffffffffffffffffffffffffffffffffff16905090565b602c60009054906101000a900473ffffffffffffffffffffffffffffffffffffffff1673ffffffffffffffffffffffffffffffffffffffff163373ffffffffffffffffffffffffffffffffffffffff161461176a576040517f08c379a000000000000000000000000000000000000000000000000000000000815260040161176190613866565b60405180910390fd5b600060016026016000848152602001908152602001600020549050600681106117c8576040517f08c379a00000000000000000000000000000000000000000000000000000000081526004016117bf90613111565b60405180910390fd5b60006001800182600681106117e0576117df613131565b5b600602019050600081600401541461182d576040517f08c379a0000000000000000000000000000000000000000000000000000000008152600401611824906131d2565b60405180910390fd5b8260018001836006811061184457611843613131565b5b600602016004018190555060008160050160006101000a81548160ff02191690831515021790555050505050565b6001602801600c9054906101000a900473ffffffffffffffffffffffffffffffffffffffff1673ffffffffffffffffffffffffffffffffffffffff163373ffffffffffffffffffffffffffffffffffffffff1614611905576040517f08c379a00000000000000000000000000000000000000000000000000000000081526004016118fc906130a5565b60405180910390fd5b80600160280160006101000a8154816bffffffffffffffffffffffff02191690836bffffffffffffffffffffffff16021790555050565b600080600090505b60068110156119a6578273ffffffffffffffffffffffffffffffffffffffff1661196d826108dc565b73ffffffffffffffffffffffffffffffffffffffff1614156119935760019150506119a8565b808061199e906133cc565b915050611944565b505b919050565b600060016025016000838152602001908152602001600020549050919050565b60606001800182600681106119e5576119e4613131565b5b60060201600201805480602002602001604051908101604052809291908181526020018280548015611a6c57602002820191906000526020600020905b8160009054906101000a900473ffffffffffffffffffffffffffffffffffffffff1673ffffffffffffffffffffffffffffffffffffffff1681526020019060010190808311611a22575b50505050509050919050565b611a818161193c565b611ac0576040517f08c379a0000000000000000000000000000000000000000000000000000000008152600401611ab7906138d2565b60405180910390fd5b60005b6006811015611d24576000600180018260068110611ae457611ae3613131565b5b600602019050600081600401549050600081118015611b8957508373ffffffffffffffffffffffffffffffffffffffff163373ffffffffffffffffffffffffffffffffffffffff161480611b8857506001602801600c9054906101000a900473ffffffffffffffffffffffffffffffffffffffff1673ffffffffffffffffffffffffffffffffffffffff163373ffffffffffffffffffffffffffffffffffffffff16145b5b8015611bc857508373ffffffffffffffffffffffffffffffffffffffff16611bb0846108dc565b73ffffffffffffffffffffffffffffffffffffffff16145b15611d0f5760005b8260020180549050811015611d0d576000836001016000856002018481548110611bfd57611bfc613131565b5b9060005260206000200160009054906101000a900473ffffffffffffffffffffffffffffffffffffffff1673ffffffffffffffffffffffffffffffffffffffff1673ffffffffffffffffffffffffffffffffffffffff168152602001908152602001600020549050602d60009054906101000a900473ffffffffffffffffffffffffffffffffffffffff1673ffffffffffffffffffffffffffffffffffffffff1663f242432a30888460016040518563ffffffff1660e01b8152600401611cc79493929190613621565b600060405180830381600087803b158015611ce157600080fd5b505af1158015611cf5573d6000803e3d6000fd5b50505050508080611d05906133cc565b915050611bd0565b505b50508080611d1c906133cc565b915050611ac3565b5050565b6001602801600c9054906101000a900473ffffffffffffffffffffffffffffffffffffffff1673ffffffffffffffffffffffffffffffffffffffff163373ffffffffffffffffffffffffffffffffffffffff1614611dbb576040517f08c379a0000000000000000000000000000000000000000000000000000000008152600401611db2906130a5565b60405180910390fd5b8273ffffffffffffffffffffffffffffffffffffffff1663f242432a303385856040518563ffffffff1660e01b8152600401611dfa94939291906138f2565b600060405180830381600087803b158015611e1457600080fd5b505af1158015611e28573d6000803e3d6000fd5b50505050505050565b60008273ffffffffffffffffffffffffffffffffffffffff1662fdd58e33846040518363ffffffff1660e01b8152600401611e6d9291906137f1565b602060405180830381865afa158015611e8a573d6000803e3d6000fd5b505050506040513d601f19601f82011682018060405250810190611eae919061395f565b11611eee576040517f08c379a0000000000000000000000000000000000000000000000000000000008152600401611ee5906139d8565b60405180910390fd5b6000600160290160009054906101000a900473ffffffffffffffffffffffffffffffffffffffff1673ffffffffffffffffffffffffffffffffffffffff1663c19a4ef5836040518263ffffffff1660e01b8152600401611f4e9190612cc2565b600060405180830381865afa158015611f6b573d6000803e3d6000fd5b505050506040513d6000823e3d601f19601f82011682018060405250810190611f94919061413f565b90506000816101e0015160ff1614611fe1576040517f08c379a0000000000000000000000000000000000000000000000000000000008152600401611fd8906141d4565b60405180910390fd5b60005b60068110156122125760018001816006811061200357612002613131565b5b600602016003015482610160015160ff1614156121ff576001800181600681106120305761202f613131565b5b6006020160050160019054906101000a900460ff16612084576040517f08c379a000000000000000000000000000000000000000000000000000000000815260040161207b90614240565b60405180910390fd5b600060018001826006811061209c5761209b613131565b5b6006020160010160003373ffffffffffffffffffffffffffffffffffffffff1673ffffffffffffffffffffffffffffffffffffffff1681526020019081526020016000205414612121576040517f08c379a0000000000000000000000000000000000000000000000000000000008152600401612118906142ac565b60405180910390fd5b60018001816006811061213757612136613131565b5b60060201600201339080600181540180825580915050600190039060005260206000200160009091909190916101000a81548173ffffffffffffffffffffffffffffffffffffffff021916908373ffffffffffffffffffffffffffffffffffffffff160217905550826001800182600681106121b6576121b5613131565b5b6006020160010160003373ffffffffffffffffffffffffffffffffffffffff1673ffffffffffffffffffffffffffffffffffffffff168152602001908152602001600020819055505b808061220a906133cc565b915050611fe4565b508273ffffffffffffffffffffffffffffffffffffffff1663f242432a33308560016040518563ffffffff1660e01b81526004016122539493929190613621565b600060405180830381600087803b15801561226d57600080fd5b505af1158015612281573d6000803e3d6000fd5b50505050505050565b6000602b60009054906101000a900473ffffffffffffffffffffffffffffffffffffffff1673ffffffffffffffffffffffffffffffffffffffff166370a08231306040518263ffffffff1660e01b81526004016122e79190612a0d565b602060405180830381865afa158015612304573d6000803e3d6000fd5b505050506040513d601f19601f82011682018060405250810190612328919061395f565b905090565b6060600160290160009054906101000a900473ffffffffffffffffffffffffffffffffffffffff1673ffffffffffffffffffffffffffffffffffffffff1663d72fecea836040518263ffffffff1660e01b815260040161238d9190612a0d565b600060405180830381865afa1580156123aa573d6000803e3d6000fd5b505050506040513d6000823e3d601f19601f820116820180604052508101906123d391906143df565b9050919050565b600063f23a6e6160e01b90509695505050505050565b60006001602801600c9054906101000a900473ffffffffffffffffffffffffffffffffffffffff1690508073ffffffffffffffffffffffffffffffffffffffff163373ffffffffffffffffffffffffffffffffffffffff1614612488576040517f08c379a000000000000000000000000000000000000000000000000000000000815260040161247f906137d1565b60405180910390fd5b816001602801600c6101000a81548173ffffffffffffffffffffffffffffffffffffffff021916908373ffffffffffffffffffffffffffffffffffffffff1602179055508173ffffffffffffffffffffffffffffffffffffffff168173ffffffffffffffffffffffffffffffffffffffff167f8be0079c531659141344cd1fd0a4f28419497f9722a3daafe3b4186f6b6457e060405160405180910390a35050565b6001602801600c9054906101000a900473ffffffffffffffffffffffffffffffffffffffff1673ffffffffffffffffffffffffffffffffffffffff163373ffffffffffffffffffffffffffffffffffffffff16146125bd576040517f08c379a00000000000000000000000000000000000000000000000000000000081526004016125b4906130a5565b60405180910390fd5b60008290508073ffffffffffffffffffffffffffffffffffffffff1663a9059cbb33846040518363ffffffff1660e01b81526004016125fd9291906137f1565b6020604051808303816000875af115801561261c573d6000803e3d6000fd5b505050506040513d601f19601f820116820180604052508101906126409190613758565b50505050565b6000602b60009054906101000a900473ffffffffffffffffffffffffffffffffffffffff1673ffffffffffffffffffffffffffffffffffffffff16634000aea0602c60009054906101000a900473ffffffffffffffffffffffffffffffffffffffff168587866040516020016126bd929190614437565b6040516020818303038152906040526040518463ffffffff1660e01b81526004016126ea939291906144a4565b6020604051808303816000875af1158015612709573d6000803e3d6000fd5b505050506040513d601f19601f8201168201806040525081019061272d9190613758565b506000612752858430600160250160008a815260200190815260200160002054612794565b905060016025016000868152602001908152602001600020600081548092919061277b906133cc565b919050555061278a85826127d0565b9150509392505050565b6000848484846040516020016127ad94939291906144e2565b6040516020818303038152906040528051906020012060001c9050949350505050565b600082826040516020016127e5929190614548565b60405160208183030381529060405280519060200120905092915050565b50805460008255906000526020600020908101906128219190612824565b50565b5b8082111561283d576000816000905550600101612825565b5090565b6000604051905090565b600080fd5b600080fd5b60007fffffffff0000000000000000000000000000000000000000000000000000000082169050919050565b61288a81612855565b811461289557600080fd5b50565b6000813590506128a781612881565b92915050565b6000602082840312156128c3576128c261284b565b5b60006128d184828501612898565b91505092915050565b60008115159050919050565b6128ef816128da565b82525050565b600060208201905061290a60008301846128e6565b92915050565b600073ffffffffffffffffffffffffffffffffffffffff82169050919050565b600061293b82612910565b9050919050565b61294b81612930565b811461295657600080fd5b50565b60008135905061296881612942565b92915050565b6000602082840312156129845761298361284b565b5b600061299284828501612959565b91505092915050565b6000819050919050565b6129ae8161299b565b81146129b957600080fd5b50565b6000813590506129cb816129a5565b92915050565b6000602082840312156129e7576129e661284b565b5b60006129f5848285016129bc565b91505092915050565b612a0781612930565b82525050565b6000602082019050612a2260008301846129fe565b92915050565b6000819050919050565b612a3b81612a28565b8114612a4657600080fd5b50565b600081359050612a5881612a32565b92915050565b60008060008060008060c08789031215612a7b57612a7a61284b565b5b6000612a8989828a01612959565b9650506020612a9a89828a01612959565b9550506040612aab89828a01612959565b9450506060612abc89828a01612959565b9350506080612acd89828a01612a49565b92505060a0612ade89828a016129bc565b9150509295509295509295565b60008060408385031215612b0257612b0161284b565b5b6000612b10858286016129bc565b9250506020612b2185828601612959565b9150509250929050565b60006bffffffffffffffffffffffff82169050919050565b612b4c81612b2b565b82525050565b6000602082019050612b676000830184612b43565b92915050565b60008060408385031215612b8457612b8361284b565b5b6000612b9285828601612959565b9250506020612ba3858286016129bc565b9150509250929050565b60008060408385031215612bc457612bc361284b565b5b6000612bd2858286016129bc565b9250506020612be385828601612a49565b9150509250929050565b60008060408385031215612c0457612c0361284b565b5b6000612c1285828601612a49565b9250506020612c23858286016129bc565b9150509250929050565b612c3681612b2b565b8114612c4157600080fd5b50565b600081359050612c5381612c2d565b92915050565b600060208284031215612c6f57612c6e61284b565b5b6000612c7d84828501612c44565b91505092915050565b600060208284031215612c9c57612c9b61284b565b5b6000612caa84828501612a49565b91505092915050565b612cbc8161299b565b82525050565b6000602082019050612cd76000830184612cb3565b92915050565b600081519050919050565b600082825260208201905092915050565b6000819050602082019050919050565b612d1281612930565b82525050565b6000612d248383612d09565b60208301905092915050565b6000602082019050919050565b6000612d4882612cdd565b612d528185612ce8565b9350612d5d83612cf9565b8060005b83811015612d8e578151612d758882612d18565b9750612d8083612d30565b925050600181019050612d61565b5085935050505092915050565b60006020820190508181036000830152612db58184612d3d565b905092915050565b600080600060608486031215612dd657612dd561284b565b5b6000612de486828701612959565b9350506020612df5868287016129bc565b9250506040612e06868287016129bc565b9150509250925092565b600081519050919050565b600082825260208201905092915050565b6000819050602082019050919050565b612e458161299b565b82525050565b604082016000820151612e616000850182612e3c565b506020820151612e746020850182612e3c565b50505050565b6000612e868383612e4b565b60408301905092915050565b6000602082019050919050565b6000612eaa82612e10565b612eb48185612e1b565b9350612ebf83612e2c565b8060005b83811015612ef0578151612ed78882612e7a565b9750612ee283612e92565b925050600181019050612ec3565b5085935050505092915050565b60006020820190508181036000830152612f178184612e9f565b905092915050565b600080fd5b600080fd5b600080fd5b60008083601f840112612f4457612f43612f1f565b5b8235905067ffffffffffffffff811115612f6157612f60612f24565b5b602083019150836001820283011115612f7d57612f7c612f29565b5b9250929050565b60008060008060008060a08789031215612fa157612fa061284b565b5b6000612faf89828a01612959565b9650506020612fc089828a01612959565b9550506040612fd189828a016129bc565b9450506060612fe289828a016129bc565b935050608087013567ffffffffffffffff81111561300357613002612850565b5b61300f89828a01612f2e565b92509250509295509295509295565b61302781612855565b82525050565b6000602082019050613042600083018461301e565b92915050565b600082825260208201905092915050565b7f4661696c65643a206e6f7420636f6e7472616374206f776e6572000000000000600082015250565b600061308f601a83613048565b915061309a82613059565b602082019050919050565b600060208201905081810360008301526130be81613082565b9050919050565b7f526166666c653a20526166666c6520646f6573206e6f74206578697374000000600082015250565b60006130fb601d83613048565b9150613106826130c5565b602082019050919050565b6000602082019050818103600083015261312a816130ee565b9050919050565b7f4e487b7100000000000000000000000000000000000000000000000000000000600052603260045260246000fd5b7f526166666c653a2052616e646f6d206e756d62657220616c726561647920676560008201527f6e65726174656400000000000000000000000000000000000000000000000000602082015250565b60006131bc602783613048565b91506131c782613160565b604082019050919050565b600060208201905081810360008301526131eb816131af565b9050919050565b7f526166666c653a2052616e646f6d206e756d6265722069732070656e64696e67600082015250565b6000613228602083613048565b9150613233826131f2565b602082019050919050565b600060208201905081810360008301526132578161321b565b9050919050565b6000819050919050565b6132796132748261299b565b61325e565b82525050565b600061328b8285613268565b60208201915061329b8284613268565b6020820191508190509392505050565b7f4e487b7100000000000000000000000000000000000000000000000000000000600052601260045260246000fd5b60006132e58261299b565b91506132f08361299b565b925082613300576132ff6132ab565b5b828206905092915050565b7f496e697469616c697a61626c653a20636f6e747261637420697320616c72656160008201527f647920696e697469616c697a6564000000000000000000000000000000000000602082015250565b6000613367602e83613048565b91506133728261330b565b604082019050919050565b600060208201905081810360008301526133968161335a565b9050919050565b7f4e487b7100000000000000000000000000000000000000000000000000000000600052601160045260246000fd5b60006133d78261299b565b91507fffffffffffffffffffffffffffffffffffffffffffffffffffffffffffffffff82141561340a5761340961339d565b5b600182019050919050565b7f526166666c653a2052616e646f6d206e756d626572206e6f742067656e65726160008201527f7465642079657400000000000000000000000000000000000000000000000000602082015250565b6000613471602783613048565b915061347c82613415565b604082019050919050565b600060208201905081810360008301526134a081613464565b9050919050565b7f526166666c653a204e6f7420636c61696d6564206279206f776e6572206f722060008201527f636f6e74726163744f776e657200000000000000000000000000000000000000602082015250565b6000613503602d83613048565b915061350e826134a7565b604082019050919050565b60006020820190508181036000830152613532816134f6565b9050919050565b7f6e6f7420612077696e6e65720000000000000000000000000000000000000000600082015250565b600061356f600c83613048565b915061357a82613539565b602082019050919050565b6000602082019050818103600083015261359e81613562565b9050919050565b6000819050919050565b6000819050919050565b60006135d46135cf6135ca846135a5565b6135af565b61299b565b9050919050565b6135e4816135b9565b82525050565b600082825260208201905092915050565b50565b600061360b6000836135ea565b9150613616826135fb565b600082019050919050565b600060a08201905061363660008301876129fe565b61364360208301866129fe565b6136506040830185612cb3565b61365d60608301846135db565b818103608083015261366e816135fe565b905095945050505050565b60006136848261299b565b915061368f8361299b565b9250827fffffffffffffffffffffffffffffffffffffffffffffffffffffffffffffffff038211156136c4576136c361339d565b5b828201905092915050565b60006136da8261299b565b91506136e58361299b565b9250828210156136f8576136f761339d565b5b828203905092915050565b600060408201905061371860008301856129fe565b61372560208301846129fe565b9392505050565b613735816128da565b811461374057600080fd5b50565b6000815190506137528161372c565b92915050565b60006020828403121561376e5761376d61284b565b5b600061377c84828501613743565b91505092915050565b7f526166666c653a204d75737420626520636f6e7472616374206f776e65720000600082015250565b60006137bb601e83613048565b91506137c682613785565b602082019050919050565b600060208201905081810360008301526137ea816137ae565b9050919050565b600060408201905061380660008301856129fe565b6138136020830184612cb3565b9392505050565b7f4f6e6c7920565246436f6f7264696e61746f722063616e2066756c66696c6c00600082015250565b6000613850601f83613048565b915061385b8261381a565b602082019050919050565b6000602082019050818103600083015261387f81613843565b9050919050565b7f536f7272792c206e6f207072697a657320666f7220796f750000000000000000600082015250565b60006138bc601883613048565b91506138c782613886565b602082019050919050565b600060208201905081810360008301526138eb816138af565b9050919050565b600060a08201905061390760008301876129fe565b61391460208301866129fe565b6139216040830185612cb3565b61392e6060830184612cb3565b818103608083015261393f816135fe565b905095945050505050565b600081519050613959816129a5565b92915050565b6000602082840312156139755761397461284b565b5b60006139838482850161394a565b91505092915050565b7f496e73756666696369656e742042616c616e6365210000000000000000000000600082015250565b60006139c2601583613048565b91506139cd8261398c565b602082019050919050565b600060208201905081810360008301526139f1816139b5565b9050919050565b600080fd5b6000601f19601f8301169050919050565b7f4e487b7100000000000000000000000000000000000000000000000000000000600052604160045260246000fd5b613a46826139fd565b810181811067ffffffffffffffff82111715613a6557613a64613a0e565b5b80604052505050565b6000613a78612841565b9050613a848282613a3d565b919050565b600080fd5b600080fd5b600067ffffffffffffffff821115613aae57613aad613a0e565b5b613ab7826139fd565b9050602081019050919050565b60005b83811015613ae2578082015181840152602081019050613ac7565b83811115613af1576000848401525b50505050565b6000613b0a613b0584613a93565b613a6e565b905082815260208101848484011115613b2657613b25613a8e565b5b613b31848285613ac4565b509392505050565b600082601f830112613b4e57613b4d612f1f565b5b8151613b5e848260208601613af7565b91505092915050565b600067ffffffffffffffff821115613b8257613b81613a0e565b5b602082029050919050565b60008160000b9050919050565b613ba381613b8d565b8114613bae57600080fd5b50565b600081519050613bc081613b9a565b92915050565b6000613bd9613bd484613b67565b613a6e565b90508060208402830185811115613bf357613bf2612f29565b5b835b81811015613c1c5780613c088882613bb1565b845260208401935050602081019050613bf5565b5050509392505050565b600082601f830112613c3b57613c3a612f1f565b5b6006613c48848285613bc6565b91505092915050565b600067ffffffffffffffff821115613c6c57613c6b613a0e565b5b602082029050919050565b6000613c8a613c8584613c51565b613a6e565b90508060208402830185811115613ca457613ca3612f29565b5b835b81811015613ccd5780613cb98882613743565b845260208401935050602081019050613ca6565b5050509392505050565b600082601f830112613cec57613ceb612f1f565b5b6010613cf9848285613c77565b91505092915050565b600067ffffffffffffffff821115613d1d57613d1c613a0e565b5b602082029050602081019050919050565b600060ff82169050919050565b613d4481613d2e565b8114613d4f57600080fd5b50565b600081519050613d6181613d3b565b92915050565b6000613d7a613d7584613d02565b613a6e565b90508083825260208201905060208402830185811115613d9d57613d9c612f29565b5b835b81811015613dc65780613db28882613d52565b845260208401935050602081019050613d9f565b5050509392505050565b600082601f830112613de557613de4612f1f565b5b8151613df5848260208601613d67565b91505092915050565b600060808284031215613e1457613e136139f8565b5b613e1e6080613a6e565b90506000613e2e84828501613d52565b6000830152506020613e4284828501613d52565b6020830152506040613e5684828501613d52565b6040830152506060613e6a84828501613d52565b60608301525092915050565b600063ffffffff82169050919050565b613e8f81613e76565b8114613e9a57600080fd5b50565b600081519050613eac81613e86565b92915050565b600061ffff82169050919050565b613ec981613eb2565b8114613ed457600080fd5b50565b600081519050613ee681613ec0565b92915050565b60008160010b9050919050565b613f0281613eec565b8114613f0d57600080fd5b50565b600081519050613f1f81613ef9565b92915050565b60006105208284031215613f3c57613f3b6139f8565b5b613f47610240613a6e565b9050600082015167ffffffffffffffff811115613f6757613f66613a89565b5b613f7384828501613b39565b600083015250602082015167ffffffffffffffff811115613f9757613f96613a89565b5b613fa384828501613b39565b602083015250604082015167ffffffffffffffff811115613fc757613fc6613a89565b5b613fd384828501613b39565b6040830152506060613fe784828501613c26565b606083015250610120613ffc84828501613cd7565b60808301525061032082015167ffffffffffffffff81111561402157614020613a89565b5b61402d84828501613dd0565b60a08301525061034061404284828501613dfe565b60c0830152506103c06140578482850161394a565b60e0830152506103e061406c8482850161394a565b610100830152506104006140828482850161394a565b6101208301525061042061409884828501613e9d565b610140830152506104406140ae84828501613d52565b610160830152506104606140c484828501613743565b610180830152506104806140da84828501613ed7565b6101a0830152506104a06140f084828501613743565b6101c0830152506104c061410684828501613d52565b6101e0830152506104e061411c84828501613f10565b6102008301525061050061413284828501613e9d565b6102208301525092915050565b6000602082840312156141555761415461284b565b5b600082015167ffffffffffffffff81111561417357614172612850565b5b61417f84828501613f25565b91505092915050565b7f63616e206f6e6c7920656e746572207765617261626c65730000000000000000600082015250565b60006141be601883613048565b91506141c982614188565b602082019050919050565b600060208201905081810360008301526141ed816141b1565b9050919050565b7f726166666c65206e6f7420616374697665000000000000000000000000000000600082015250565b600061422a601183613048565b9150614235826141f4565b602082019050919050565b600060208201905081810360008301526142598161421d565b9050919050565b7f616c726561647920656e746572656420696e207468697320726166666c650000600082015250565b6000614296601e83613048565b91506142a182614260565b602082019050919050565b600060208201905081810360008301526142c581614289565b9050919050565b600067ffffffffffffffff8211156142e7576142e6613a0e565b5b602082029050602081019050919050565b60006040828403121561430e5761430d6139f8565b5b6143186040613a6e565b905060006143288482850161394a565b600083015250602061433c8482850161394a565b60208301525092915050565b600061435b614356846142cc565b613a6e565b9050808382526020820190506040840283018581111561437e5761437d612f29565b5b835b818110156143a7578061439388826142f8565b845260208401935050604081019050614380565b5050509392505050565b600082601f8301126143c6576143c5612f1f565b5b81516143d6848260208601614348565b91505092915050565b6000602082840312156143f5576143f461284b565b5b600082015167ffffffffffffffff81111561441357614412612850565b5b61441f848285016143b1565b91505092915050565b61443181612a28565b82525050565b600060408201905061444c6000830185614428565b6144596020830184612cb3565b9392505050565b600081519050919050565b600061447682614460565b61448081856135ea565b9350614490818560208601613ac4565b614499816139fd565b840191505092915050565b60006060820190506144b960008301866129fe565b6144c66020830185612cb3565b81810360408301526144d8818461446b565b9050949350505050565b60006080820190506144f76000830187614428565b6145046020830186612cb3565b61451160408301856129fe565b61451e6060830184612cb3565b95945050505050565b6000819050919050565b61454261453d82612a28565b614527565b82525050565b60006145548285614531565b6020820191506145648284613268565b602082019150819050939250505056fea264697066735822122090d71a3b4b56d97c983b477921909739717549abd4849c8288f65bfe0532bdcb64736f6c634300080a0033",
  "linkReferences": {},
  "deployedLinkReferences": {}
}