{
  "_format": "hh-sol-artifact-1",
  "contractName": "TaalerCoin",
  "sourceName": "contracts/Taaler.sol",
  "abi": [
    {
      "inputs": [
        {
          "internalType": "string",
          "name": "name_",
          "type": "string"
        },
        {
          "internalType": "string",
          "name": "symbol_",
          "type": "string"
        }
      ],
      "stateMutability": "nonpayable",
      "type": "constructor"
    },
    {
      "anonymous": false,
      "inputs": [
        {
          "indexed": true,
          "internalType": "address",
          "name": "owner",
          "type": "address"
        },
        {
          "indexed": true,
          "internalType": "address",
          "name": "spender",
          "type": "address"
        },
        {
          "indexed": false,
          "internalType": "uint256",
          "name": "value",
          "type": "uint256"
        }
      ],
      "name": "Approval",
      "type": "event"
    },
    {
      "anonymous": false,
      "inputs": [
        {
          "indexed": true,
          "internalType": "address",
          "name": "from",
          "type": "address"
        },
        {
          "indexed": true,
          "internalType": "address",
          "name": "to",
          "type": "address"
        },
        {
          "indexed": false,
          "internalType": "uint256",
          "name": "value",
          "type": "uint256"
        }
      ],
      "name": "Transfer",
      "type": "event"
    },
    {
      "inputs": [],
      "name": "admin",
      "outputs": [
        {
          "internalType": "address",
          "name": "",
          "type": "address"
        }
      ],
      "stateMutability": "view",
      "type": "function"
    },
    {
      "inputs": [
        {
          "internalType": "address",
          "name": "owner",
          "type": "address"
        },
        {
          "internalType": "address",
          "name": "spender",
          "type": "address"
        }
      ],
      "name": "allowance",
      "outputs": [
        {
          "internalType": "uint256",
          "name": "",
          "type": "uint256"
        }
      ],
      "stateMutability": "view",
      "type": "function"
    },
    {
      "inputs": [
        {
          "internalType": "address",
          "name": "spender",
          "type": "address"
        },
        {
          "internalType": "uint256",
          "name": "amount",
          "type": "uint256"
        }
      ],
      "name": "approve",
      "outputs": [
        {
          "internalType": "bool",
          "name": "",
          "type": "bool"
        }
      ],
      "stateMutability": "nonpayable",
      "type": "function"
    },
    {
      "inputs": [
        {
          "internalType": "address",
          "name": "account",
          "type": "address"
        }
      ],
      "name": "balanceOf",
      "outputs": [
        {
          "internalType": "uint256",
          "name": "",
          "type": "uint256"
        }
      ],
      "stateMutability": "view",
      "type": "function"
    },
    {
      "inputs": [],
      "name": "decimals",
      "outputs": [
        {
          "internalType": "uint8",
          "name": "",
          "type": "uint8"
        }
      ],
      "stateMutability": "view",
      "type": "function"
    },
    {
      "inputs": [
        {
          "internalType": "address",
          "name": "spender",
          "type": "address"
        },
        {
          "internalType": "uint256",
          "name": "subtractedValue",
          "type": "uint256"
        }
      ],
      "name": "decreaseAllowance",
      "outputs": [
        {
          "internalType": "bool",
          "name": "",
          "type": "bool"
        }
      ],
      "stateMutability": "nonpayable",
      "type": "function"
    },
    {
      "inputs": [
        {
          "internalType": "uint256",
          "name": "_numHats",
          "type": "uint256"
        }
      ],
      "name": "depositCommonHat",
      "outputs": [],
      "stateMutability": "nonpayable",
      "type": "function"
    },
    {
      "inputs": [],
      "name": "getAdmin",
      "outputs": [
        {
          "internalType": "address",
          "name": "",
          "type": "address"
        }
      ],
      "stateMutability": "view",
      "type": "function"
    },
    {
      "inputs": [],
      "name": "gotchiDiamond",
      "outputs": [
        {
          "internalType": "address",
          "name": "",
          "type": "address"
        }
      ],
      "stateMutability": "view",
      "type": "function"
    },
    {
      "inputs": [
        {
          "internalType": "address",
          "name": "spender",
          "type": "address"
        },
        {
          "internalType": "uint256",
          "name": "addedValue",
          "type": "uint256"
        }
      ],
      "name": "increaseAllowance",
      "outputs": [
        {
          "internalType": "bool",
          "name": "",
          "type": "bool"
        }
      ],
      "stateMutability": "nonpayable",
      "type": "function"
    },
    {
      "inputs": [],
      "name": "name",
      "outputs": [
        {
          "internalType": "string",
          "name": "",
          "type": "string"
        }
      ],
      "stateMutability": "view",
      "type": "function"
    },
    {
      "inputs": [
        {
          "internalType": "address",
          "name": "_operator",
          "type": "address"
        },
        {
          "internalType": "address",
          "name": "_from",
          "type": "address"
        },
        {
          "internalType": "uint256[]",
          "name": "_ids",
          "type": "uint256[]"
        },
        {
          "internalType": "uint256[]",
          "name": "_values",
          "type": "uint256[]"
        },
        {
          "internalType": "bytes",
          "name": "_data",
          "type": "bytes"
        }
      ],
      "name": "onERC1155BatchReceived",
      "outputs": [
        {
          "internalType": "bytes4",
          "name": "",
          "type": "bytes4"
        }
      ],
      "stateMutability": "nonpayable",
      "type": "function"
    },
    {
      "inputs": [
        {
          "internalType": "address",
          "name": "_operator",
          "type": "address"
        },
        {
          "internalType": "address",
          "name": "_from",
          "type": "address"
        },
        {
          "internalType": "uint256",
          "name": "_id",
          "type": "uint256"
        },
        {
          "internalType": "uint256",
          "name": "_value",
          "type": "uint256"
        },
        {
          "internalType": "bytes",
          "name": "_data",
          "type": "bytes"
        }
      ],
      "name": "onERC1155Received",
      "outputs": [
        {
          "internalType": "bytes4",
          "name": "",
          "type": "bytes4"
        }
      ],
      "stateMutability": "view",
      "type": "function"
    },
    {
      "inputs": [
        {
          "internalType": "address",
          "name": "_tokenAddress",
          "type": "address"
        },
        {
          "internalType": "uint256",
          "name": "_itemId",
          "type": "uint256"
        },
        {
          "internalType": "uint256",
          "name": "_values",
          "type": "uint256"
        }
      ],
      "name": "returnERC1155",
      "outputs": [],
      "stateMutability": "nonpayable",
      "type": "function"
    },
    {
      "inputs": [
        {
          "internalType": "address",
          "name": "_newAdmin",
          "type": "address"
        }
      ],
      "name": "setAdmin",
      "outputs": [],
      "stateMutability": "nonpayable",
      "type": "function"
    },
    {
      "inputs": [],
      "name": "symbol",
      "outputs": [
        {
          "internalType": "string",
          "name": "",
          "type": "string"
        }
      ],
      "stateMutability": "view",
      "type": "function"
    },
    {
      "inputs": [],
      "name": "totalSupply",
      "outputs": [
        {
          "internalType": "uint256",
          "name": "",
          "type": "uint256"
        }
      ],
      "stateMutability": "view",
      "type": "function"
    },
    {
      "inputs": [
        {
          "internalType": "address",
          "name": "recipient",
          "type": "address"
        },
        {
          "internalType": "uint256",
          "name": "amount",
          "type": "uint256"
        }
      ],
      "name": "transfer",
      "outputs": [
        {
          "internalType": "bool",
          "name": "",
          "type": "bool"
        }
      ],
      "stateMutability": "nonpayable",
      "type": "function"
    },
    {
      "inputs": [
        {
          "internalType": "address",
          "name": "sender",
          "type": "address"
        },
        {
          "internalType": "address",
          "name": "recipient",
          "type": "address"
        },
        {
          "internalType": "uint256",
          "name": "amount",
          "type": "uint256"
        }
      ],
      "name": "transferFrom",
      "outputs": [
        {
          "internalType": "bool",
          "name": "",
          "type": "bool"
        }
      ],
      "stateMutability": "nonpayable",
      "type": "function"
    },
    {
      "inputs": [
        {
          "internalType": "uint256",
          "name": "_numHats",
          "type": "uint256"
        }
      ],
      "name": "withDrawCommonHat",
      "outputs": [],
      "stateMutability": "nonpayable",
      "type": "function"
    }
  ],
  "bytecode": "0x60806040527386935f11c86623dec8a25696e1c19a8659cbf95d600560006101000a81548173ffffffffffffffffffffffffffffffffffffffff021916908373ffffffffffffffffffffffffffffffffffffffff160217905550600560009054906101000a900473ffffffffffffffffffffffffffffffffffffffff16600660006101000a81548173ffffffffffffffffffffffffffffffffffffffff021916908373ffffffffffffffffffffffffffffffffffffffff160217905550348015620000c957600080fd5b5060405162002c5f38038062002c5f8339818101604052810190620000ef9190620003b7565b8160039080519060200190620001079291906200016a565b508060049080519060200190620001209291906200016a565b5033600760006101000a81548173ffffffffffffffffffffffffffffffffffffffff021916908373ffffffffffffffffffffffffffffffffffffffff1602179055505050620004a1565b82805462000178906200046b565b90600052602060002090601f0160209004810192826200019c5760008555620001e8565b82601f10620001b757805160ff1916838001178555620001e8565b82800160010185558215620001e8579182015b82811115620001e7578251825591602001919060010190620001ca565b5b509050620001f79190620001fb565b5090565b5b8082111562000216576000816000905550600101620001fc565b5090565b6000604051905090565b600080fd5b600080fd5b600080fd5b600080fd5b6000601f19601f8301169050919050565b7f4e487b7100000000000000000000000000000000000000000000000000000000600052604160045260246000fd5b620002838262000238565b810181811067ffffffffffffffff82111715620002a557620002a462000249565b5b80604052505050565b6000620002ba6200021a565b9050620002c8828262000278565b919050565b600067ffffffffffffffff821115620002eb57620002ea62000249565b5b620002f68262000238565b9050602081019050919050565b60005b838110156200032357808201518184015260208101905062000306565b8381111562000333576000848401525b50505050565b6000620003506200034a84620002cd565b620002ae565b9050828152602081018484840111156200036f576200036e62000233565b5b6200037c84828562000303565b509392505050565b600082601f8301126200039c576200039b6200022e565b5b8151620003ae84826020860162000339565b91505092915050565b60008060408385031215620003d157620003d062000224565b5b600083015167ffffffffffffffff811115620003f257620003f162000229565b5b620004008582860162000384565b925050602083015167ffffffffffffffff81111562000424576200042362000229565b5b620004328582860162000384565b9150509250929050565b7f4e487b7100000000000000000000000000000000000000000000000000000000600052602260045260246000fd5b600060028204905060018216806200048457607f821691505b602082108114156200049b576200049a6200043c565b5b50919050565b6127ae80620004b16000396000f3fe608060405234801561001057600080fd5b506004361061012c5760003560e01c806395d89b41116100ad578063cd6a626211610071578063cd6a62621461036b578063dd62ed3e14610387578063f23a6e61146103b7578063f851a440146103e7578063fc5bf168146104055761012c565b806395d89b41146102a1578063a457c2d7146102bf578063a9059cbb146102ef578063b2344dd51461031f578063bc197c811461033b5761012c565b806339509351116100f457806339509351146101eb578063573cc7f11461021b5780636e9960c314610237578063704b6c021461025557806370a08231146102715761012c565b806306fdde0314610131578063095ea7b31461014f57806318160ddd1461017f57806323b872dd1461019d578063313ce567146101cd575b600080fd5b610139610423565b604051610146919061171f565b60405180910390f35b610169600480360381019061016491906117df565b6104b5565b604051610176919061183a565b60405180910390f35b6101876104d3565b6040516101949190611864565b60405180910390f35b6101b760048036038101906101b2919061187f565b6104dd565b6040516101c4919061183a565b60405180910390f35b6101d56105d5565b6040516101e291906118ee565b60405180910390f35b610205600480360381019061020091906117df565b6105de565b604051610212919061183a565b60405180910390f35b61023560048036038101906102309190611909565b61068a565b005b61023f610820565b60405161024c9190611945565b60405180910390f35b61026f600480360381019061026a9190611960565b61084a565b005b61028b60048036038101906102869190611960565b6108e8565b6040516102989190611864565b60405180910390f35b6102a9610930565b6040516102b6919061171f565b60405180910390f35b6102d960048036038101906102d491906117df565b6109c2565b6040516102e6919061183a565b60405180910390f35b610309600480360381019061030491906117df565b610aad565b604051610316919061183a565b60405180910390f35b6103396004803603810190610334919061198d565b610acb565b005b61035560048036038101906103509190611a9b565b610b9b565b6040516103629190611bb2565b60405180910390f35b61038560048036038101906103809190611909565b610bcc565b005b6103a1600480360381019061039c9190611bcd565b610e3f565b6040516103ae9190611864565b60405180910390f35b6103d160048036038101906103cc9190611c0d565b610ec6565b6040516103de9190611bb2565b60405180910390f35b6103ef610ef5565b6040516103fc9190611945565b60405180910390f35b61040d610f1b565b60405161041a9190611945565b60405180910390f35b60606003805461043290611cd6565b80601f016020809104026020016040519081016040528092919081815260200182805461045e90611cd6565b80156104ab5780601f10610480576101008083540402835291602001916104ab565b820191906000526020600020905b81548152906001019060200180831161048e57829003601f168201915b5050505050905090565b60006104c96104c2610f41565b8484610f49565b6001905092915050565b6000600254905090565b60006104ea848484611114565b6000600160008673ffffffffffffffffffffffffffffffffffffffff1673ffffffffffffffffffffffffffffffffffffffff1681526020019081526020016000206000610535610f41565b73ffffffffffffffffffffffffffffffffffffffff1673ffffffffffffffffffffffffffffffffffffffff168152602001908152602001600020549050828110156105b5576040517f08c379a00000000000000000000000000000000000000000000000000000000081526004016105ac90611d7a565b60405180910390fd5b6105c9856105c1610f41565b858403610f49565b60019150509392505050565b60006012905090565b60006106806105eb610f41565b8484600160006105f9610f41565b73ffffffffffffffffffffffffffffffffffffffff1673ffffffffffffffffffffffffffffffffffffffff16815260200190815260200160002060008873ffffffffffffffffffffffffffffffffffffffff1673ffffffffffffffffffffffffffffffffffffffff1681526020019081526020016000205461067b9190611dc9565b610f49565b6001905092915050565b80600660009054906101000a900473ffffffffffffffffffffffffffffffffffffffff1673ffffffffffffffffffffffffffffffffffffffff1662fdd58e30603c6040518363ffffffff1660e01b81526004016106e8929190611e64565b602060405180830381865afa158015610705573d6000803e3d6000fd5b505050506040513d601f19601f820116820180604052508101906107299190611ea2565b101561076a576040517f08c379a000000000000000000000000000000000000000000000000000000000815260040161076190611f41565b60405180910390fd5b610789338269021e19e0c9bab24000006107849190611f61565b61137f565b600660009054906101000a900473ffffffffffffffffffffffffffffffffffffffff1673ffffffffffffffffffffffffffffffffffffffff1663f242432a3033603c856040518563ffffffff1660e01b81526004016107eb9493929190611ff2565b600060405180830381600087803b15801561080557600080fd5b505af1158015610819573d6000803e3d6000fd5b5050505050565b6000600760009054906101000a900473ffffffffffffffffffffffffffffffffffffffff16905090565b600760009054906101000a900473ffffffffffffffffffffffffffffffffffffffff1673ffffffffffffffffffffffffffffffffffffffff163373ffffffffffffffffffffffffffffffffffffffff16146108a457600080fd5b80600760006101000a81548173ffffffffffffffffffffffffffffffffffffffff021916908373ffffffffffffffffffffffffffffffffffffffff16021790555050565b60008060008373ffffffffffffffffffffffffffffffffffffffff1673ffffffffffffffffffffffffffffffffffffffff168152602001908152602001600020549050919050565b60606004805461093f90611cd6565b80601f016020809104026020016040519081016040528092919081815260200182805461096b90611cd6565b80156109b85780601f1061098d576101008083540402835291602001916109b8565b820191906000526020600020905b81548152906001019060200180831161099b57829003601f168201915b5050505050905090565b600080600160006109d1610f41565b73ffffffffffffffffffffffffffffffffffffffff1673ffffffffffffffffffffffffffffffffffffffff16815260200190815260200160002060008573ffffffffffffffffffffffffffffffffffffffff1673ffffffffffffffffffffffffffffffffffffffff16815260200190815260200160002054905082811015610a8e576040517f08c379a0000000000000000000000000000000000000000000000000000000008152600401610a85906120bc565b60405180910390fd5b610aa2610a99610f41565b85858403610f49565b600191505092915050565b6000610ac1610aba610f41565b8484611114565b6001905092915050565b600760009054906101000a900473ffffffffffffffffffffffffffffffffffffffff1673ffffffffffffffffffffffffffffffffffffffff163373ffffffffffffffffffffffffffffffffffffffff1614610b2557600080fd5b8273ffffffffffffffffffffffffffffffffffffffff1663f242432a303385856040518563ffffffff1660e01b8152600401610b6494939291906120dc565b600060405180830381600087803b158015610b7e57600080fd5b505af1158015610b92573d6000803e3d6000fd5b50505050505050565b60007fbc197c819b3e337a6f9652dd10becd7eef83032af3b9d958d3d42f6694146621905098975050505050505050565b80600660009054906101000a900473ffffffffffffffffffffffffffffffffffffffff1673ffffffffffffffffffffffffffffffffffffffff1662fdd58e33603c6040518363ffffffff1660e01b8152600401610c2a929190611e64565b602060405180830381865afa158015610c47573d6000803e3d6000fd5b505050506040513d601f19601f82011682018060405250810190610c6b9190611ea2565b1015610cac576040517f08c379a0000000000000000000000000000000000000000000000000000000008152600401610ca3906121a6565b60405180910390fd5b600660009054906101000a900473ffffffffffffffffffffffffffffffffffffffff1673ffffffffffffffffffffffffffffffffffffffff1663e985e9c533306040518363ffffffff1660e01b8152600401610d099291906121c6565b602060405180830381865afa158015610d26573d6000803e3d6000fd5b505050506040513d601f19601f82011682018060405250810190610d4a919061221b565b610d89576040517f08c379a0000000000000000000000000000000000000000000000000000000008152600401610d80906122ba565b60405180910390fd5b600660009054906101000a900473ffffffffffffffffffffffffffffffffffffffff1673ffffffffffffffffffffffffffffffffffffffff1663f242432a3330603c856040518563ffffffff1660e01b8152600401610deb9493929190611ff2565b600060405180830381600087803b158015610e0557600080fd5b505af1158015610e19573d6000803e3d6000fd5b50505050610e3c338269021e19e0c9bab2400000610e379190611f61565b61153e565b50565b6000600160008473ffffffffffffffffffffffffffffffffffffffff1673ffffffffffffffffffffffffffffffffffffffff16815260200190815260200160002060008373ffffffffffffffffffffffffffffffffffffffff1673ffffffffffffffffffffffffffffffffffffffff16815260200190815260200160002054905092915050565b60007ff23a6e612e1ff4830e658fe43f4e3cb4a5f8170bd5d9e69fb5d7a7fa9e4fdf9790509695505050505050565b600760009054906101000a900473ffffffffffffffffffffffffffffffffffffffff1681565b600560009054906101000a900473ffffffffffffffffffffffffffffffffffffffff1681565b600033905090565b600073ffffffffffffffffffffffffffffffffffffffff168373ffffffffffffffffffffffffffffffffffffffff161415610fb9576040517f08c379a0000000000000000000000000000000000000000000000000000000008152600401610fb09061234c565b60405180910390fd5b600073ffffffffffffffffffffffffffffffffffffffff168273ffffffffffffffffffffffffffffffffffffffff161415611029576040517f08c379a0000000000000000000000000000000000000000000000000000000008152600401611020906123de565b60405180910390fd5b80600160008573ffffffffffffffffffffffffffffffffffffffff1673ffffffffffffffffffffffffffffffffffffffff16815260200190815260200160002060008473ffffffffffffffffffffffffffffffffffffffff1673ffffffffffffffffffffffffffffffffffffffff168152602001908152602001600020819055508173ffffffffffffffffffffffffffffffffffffffff168373ffffffffffffffffffffffffffffffffffffffff167f8c5be1e5ebec7d5bd14f71427d1e84f3dd0314c0f7b2291e5b200ac8c7c3b925836040516111079190611864565b60405180910390a3505050565b600073ffffffffffffffffffffffffffffffffffffffff168373ffffffffffffffffffffffffffffffffffffffff161415611184576040517f08c379a000000000000000000000000000000000000000000000000000000000815260040161117b90612470565b60405180910390fd5b600073ffffffffffffffffffffffffffffffffffffffff168273ffffffffffffffffffffffffffffffffffffffff1614156111f4576040517f08c379a00000000000000000000000000000000000000000000000000000000081526004016111eb90612502565b60405180910390fd5b60008060008573ffffffffffffffffffffffffffffffffffffffff1673ffffffffffffffffffffffffffffffffffffffff1681526020019081526020016000205490508181101561127a576040517f08c379a000000000000000000000000000000000000000000000000000000000815260040161127190612594565b60405180910390fd5b8181036000808673ffffffffffffffffffffffffffffffffffffffff1673ffffffffffffffffffffffffffffffffffffffff16815260200190815260200160002081905550816000808573ffffffffffffffffffffffffffffffffffffffff1673ffffffffffffffffffffffffffffffffffffffff168152602001908152602001600020600082825461130d9190611dc9565b925050819055508273ffffffffffffffffffffffffffffffffffffffff168473ffffffffffffffffffffffffffffffffffffffff167fddf252ad1be2c89b69c2b068fc378daa952ba7f163c4a11628f55a4df523b3ef846040516113719190611864565b60405180910390a350505050565b600073ffffffffffffffffffffffffffffffffffffffff168273ffffffffffffffffffffffffffffffffffffffff1614156113ef576040517f08c379a00000000000000000000000000000000000000000000000000000000081526004016113e690612626565b60405180910390fd5b60008060008473ffffffffffffffffffffffffffffffffffffffff1673ffffffffffffffffffffffffffffffffffffffff16815260200190815260200160002054905081811015611475576040517f08c379a000000000000000000000000000000000000000000000000000000000815260040161146c906126b8565b60405180910390fd5b8181036000808573ffffffffffffffffffffffffffffffffffffffff1673ffffffffffffffffffffffffffffffffffffffff1681526020019081526020016000208190555081600260008282546114cc91906126d8565b92505081905550600073ffffffffffffffffffffffffffffffffffffffff168373ffffffffffffffffffffffffffffffffffffffff167fddf252ad1be2c89b69c2b068fc378daa952ba7f163c4a11628f55a4df523b3ef846040516115319190611864565b60405180910390a3505050565b600073ffffffffffffffffffffffffffffffffffffffff168273ffffffffffffffffffffffffffffffffffffffff1614156115ae576040517f08c379a00000000000000000000000000000000000000000000000000000000081526004016115a590612758565b60405180910390fd5b80600260008282546115c09190611dc9565b92505081905550806000808473ffffffffffffffffffffffffffffffffffffffff1673ffffffffffffffffffffffffffffffffffffffff16815260200190815260200160002060008282546116159190611dc9565b925050819055508173ffffffffffffffffffffffffffffffffffffffff16600073ffffffffffffffffffffffffffffffffffffffff167fddf252ad1be2c89b69c2b068fc378daa952ba7f163c4a11628f55a4df523b3ef8360405161167a9190611864565b60405180910390a35050565b600081519050919050565b600082825260208201905092915050565b60005b838110156116c05780820151818401526020810190506116a5565b838111156116cf576000848401525b50505050565b6000601f19601f8301169050919050565b60006116f182611686565b6116fb8185611691565b935061170b8185602086016116a2565b611714816116d5565b840191505092915050565b6000602082019050818103600083015261173981846116e6565b905092915050565b600080fd5b600080fd5b600073ffffffffffffffffffffffffffffffffffffffff82169050919050565b60006117768261174b565b9050919050565b6117868161176b565b811461179157600080fd5b50565b6000813590506117a38161177d565b92915050565b6000819050919050565b6117bc816117a9565b81146117c757600080fd5b50565b6000813590506117d9816117b3565b92915050565b600080604083850312156117f6576117f5611741565b5b600061180485828601611794565b9250506020611815858286016117ca565b9150509250929050565b60008115159050919050565b6118348161181f565b82525050565b600060208201905061184f600083018461182b565b92915050565b61185e816117a9565b82525050565b60006020820190506118796000830184611855565b92915050565b60008060006060848603121561189857611897611741565b5b60006118a686828701611794565b93505060206118b786828701611794565b92505060406118c8868287016117ca565b9150509250925092565b600060ff82169050919050565b6118e8816118d2565b82525050565b600060208201905061190360008301846118df565b92915050565b60006020828403121561191f5761191e611741565b5b600061192d848285016117ca565b91505092915050565b61193f8161176b565b82525050565b600060208201905061195a6000830184611936565b92915050565b60006020828403121561197657611975611741565b5b600061198484828501611794565b91505092915050565b6000806000606084860312156119a6576119a5611741565b5b60006119b486828701611794565b93505060206119c5868287016117ca565b92505060406119d6868287016117ca565b9150509250925092565b600080fd5b600080fd5b600080fd5b60008083601f840112611a0557611a046119e0565b5b8235905067ffffffffffffffff811115611a2257611a216119e5565b5b602083019150836020820283011115611a3e57611a3d6119ea565b5b9250929050565b60008083601f840112611a5b57611a5a6119e0565b5b8235905067ffffffffffffffff811115611a7857611a776119e5565b5b602083019150836001820283011115611a9457611a936119ea565b5b9250929050565b60008060008060008060008060a0898b031215611abb57611aba611741565b5b6000611ac98b828c01611794565b9850506020611ada8b828c01611794565b975050604089013567ffffffffffffffff811115611afb57611afa611746565b5b611b078b828c016119ef565b9650965050606089013567ffffffffffffffff811115611b2a57611b29611746565b5b611b368b828c016119ef565b9450945050608089013567ffffffffffffffff811115611b5957611b58611746565b5b611b658b828c01611a45565b92509250509295985092959890939650565b60007fffffffff0000000000000000000000000000000000000000000000000000000082169050919050565b611bac81611b77565b82525050565b6000602082019050611bc76000830184611ba3565b92915050565b60008060408385031215611be457611be3611741565b5b6000611bf285828601611794565b9250506020611c0385828601611794565b9150509250929050565b60008060008060008060a08789031215611c2a57611c29611741565b5b6000611c3889828a01611794565b9650506020611c4989828a01611794565b9550506040611c5a89828a016117ca565b9450506060611c6b89828a016117ca565b935050608087013567ffffffffffffffff811115611c8c57611c8b611746565b5b611c9889828a01611a45565b92509250509295509295509295565b7f4e487b7100000000000000000000000000000000000000000000000000000000600052602260045260246000fd5b60006002820490506001821680611cee57607f821691505b60208210811415611d0257611d01611ca7565b5b50919050565b7f45524332303a207472616e7366657220616d6f756e742065786365656473206160008201527f6c6c6f77616e6365000000000000000000000000000000000000000000000000602082015250565b6000611d64602883611691565b9150611d6f82611d08565b604082019050919050565b60006020820190508181036000830152611d9381611d57565b9050919050565b7f4e487b7100000000000000000000000000000000000000000000000000000000600052601160045260246000fd5b6000611dd4826117a9565b9150611ddf836117a9565b9250827fffffffffffffffffffffffffffffffffffffffffffffffffffffffffffffffff03821115611e1457611e13611d9a565b5b828201905092915050565b6000819050919050565b6000819050919050565b6000611e4e611e49611e4484611e1f565b611e29565b6117a9565b9050919050565b611e5e81611e33565b82525050565b6000604082019050611e796000830185611936565b611e866020830184611e55565b9392505050565b600081519050611e9c816117b3565b92915050565b600060208284031215611eb857611eb7611741565b5b6000611ec684828501611e8d565b91505092915050565b7f417474656d7074696e6720746f207769746864726177206d6f7265206861747360008201527f207468616e2061726520696e2074686520636f6e747261637400000000000000602082015250565b6000611f2b603983611691565b9150611f3682611ecf565b604082019050919050565b60006020820190508181036000830152611f5a81611f1e565b9050919050565b6000611f6c826117a9565b9150611f77836117a9565b9250817fffffffffffffffffffffffffffffffffffffffffffffffffffffffffffffffff0483118215151615611fb057611faf611d9a565b5b828202905092915050565b600082825260208201905092915050565b50565b6000611fdc600083611fbb565b9150611fe782611fcc565b600082019050919050565b600060a0820190506120076000830187611936565b6120146020830186611936565b6120216040830185611e55565b61202e6060830184611855565b818103608083015261203f81611fcf565b905095945050505050565b7f45524332303a2064656372656173656420616c6c6f77616e63652062656c6f7760008201527f207a65726f000000000000000000000000000000000000000000000000000000602082015250565b60006120a6602583611691565b91506120b18261204a565b604082019050919050565b600060208201905081810360008301526120d581612099565b9050919050565b600060a0820190506120f16000830187611936565b6120fe6020830186611936565b61210b6040830185611855565b6121186060830184611855565b818103608083015261212981611fcf565b905095945050505050565b7f417474656d7074696e6720746f206465706f736974206d6f726520686174732060008201527f7468616e206f776e656400000000000000000000000000000000000000000000602082015250565b6000612190602a83611691565b915061219b82612134565b604082019050919050565b600060208201905081810360008301526121bf81612183565b9050919050565b60006040820190506121db6000830185611936565b6121e86020830184611936565b9392505050565b6121f88161181f565b811461220357600080fd5b50565b600081519050612215816121ef565b92915050565b60006020828403121561223157612230611741565b5b600061223f84828501612206565b91505092915050565b7f53656e646572206d75737420617070726f7665207468697320636f6e7472616360008201527f7420746f20616363657373206861747300000000000000000000000000000000602082015250565b60006122a4603083611691565b91506122af82612248565b604082019050919050565b600060208201905081810360008301526122d381612297565b9050919050565b7f45524332303a20617070726f76652066726f6d20746865207a65726f2061646460008201527f7265737300000000000000000000000000000000000000000000000000000000602082015250565b6000612336602483611691565b9150612341826122da565b604082019050919050565b6000602082019050818103600083015261236581612329565b9050919050565b7f45524332303a20617070726f766520746f20746865207a65726f20616464726560008201527f7373000000000000000000000000000000000000000000000000000000000000602082015250565b60006123c8602283611691565b91506123d38261236c565b604082019050919050565b600060208201905081810360008301526123f7816123bb565b9050919050565b7f45524332303a207472616e736665722066726f6d20746865207a65726f20616460008201527f6472657373000000000000000000000000000000000000000000000000000000602082015250565b600061245a602583611691565b9150612465826123fe565b604082019050919050565b600060208201905081810360008301526124898161244d565b9050919050565b7f45524332303a207472616e7366657220746f20746865207a65726f206164647260008201527f6573730000000000000000000000000000000000000000000000000000000000602082015250565b60006124ec602383611691565b91506124f782612490565b604082019050919050565b6000602082019050818103600083015261251b816124df565b9050919050565b7f45524332303a207472616e7366657220616d6f756e742065786365656473206260008201527f616c616e63650000000000000000000000000000000000000000000000000000602082015250565b600061257e602683611691565b915061258982612522565b604082019050919050565b600060208201905081810360008301526125ad81612571565b9050919050565b7f45524332303a206275726e2066726f6d20746865207a65726f2061646472657360008201527f7300000000000000000000000000000000000000000000000000000000000000602082015250565b6000612610602183611691565b915061261b826125b4565b604082019050919050565b6000602082019050818103600083015261263f81612603565b9050919050565b7f45524332303a206275726e20616d6f756e7420657863656564732062616c616e60008201527f6365000000000000000000000000000000000000000000000000000000000000602082015250565b60006126a2602283611691565b91506126ad82612646565b604082019050919050565b600060208201905081810360008301526126d181612695565b9050919050565b60006126e3826117a9565b91506126ee836117a9565b92508282101561270157612700611d9a565b5b828203905092915050565b7f45524332303a206d696e7420746f20746865207a65726f206164647265737300600082015250565b6000612742601f83611691565b915061274d8261270c565b602082019050919050565b6000602082019050818103600083015261277181612735565b905091905056fea26469706673582212203ec84b14beeb3716c1b297a93d88b8ad455f1c442cc68d09410b99c4daf62fed64736f6c634300080b0033",
  "linkReferences": {},
  "deployedLinkReferences": {}
}